{
  "contractName": "Permition",
  "abi": [
    {
      "constant": true,
      "inputs": [
        {
          "internalType": "uint256",
          "name": "",
          "type": "uint256"
        }
      ],
      "name": "permitOwners",
      "outputs": [
        {
          "internalType": "address",
          "name": "",
          "type": "address"
        }
      ],
      "payable": false,
      "stateMutability": "view",
      "type": "function"
    },
    {
      "constant": false,
      "inputs": [
        {
          "internalType": "uint256",
          "name": "permitId",
          "type": "uint256"
        }
      ],
      "name": "permit",
      "outputs": [
        {
          "internalType": "uint256",
          "name": "",
          "type": "uint256"
        }
      ],
      "payable": false,
      "stateMutability": "nonpayable",
      "type": "function"
    },
    {
      "constant": true,
      "inputs": [],
      "name": "getPermitOwners",
      "outputs": [
        {
          "internalType": "address[16]",
          "name": "",
          "type": "address[16]"
        }
      ],
      "payable": false,
      "stateMutability": "view",
      "type": "function"
    }
  ],
  "bytecode": "0x608060405234801561001057600080fd5b506102b9806100206000396000f3fe608060405234801561001057600080fd5b50600436106100415760003560e01c80630887ba4a1461004657806384fed66e146100b4578063873a30d4146100f6575b600080fd5b6100726004803603602081101561005c57600080fd5b810190808035906020019092919050505061013c565b604051808273ffffffffffffffffffffffffffffffffffffffff1673ffffffffffffffffffffffffffffffffffffffff16815260200191505060405180910390f35b6100e0600480360360208110156100ca57600080fd5b810190808035906020019092919050505061016f565b6040518082815260200191505060405180910390f35b6100fe6101e0565b6040518082601060200280838360005b8381101561012957808201518184015260208101905061010e565b5050505090500191505060405180910390f35b6000816010811061014957fe5b016000915054906101000a900473ffffffffffffffffffffffffffffffffffffffff1681565b60008082101580156101825750600f8211155b61018b57600080fd5b336000836010811061019957fe5b0160006101000a81548173ffffffffffffffffffffffffffffffffffffffff021916908373ffffffffffffffffffffffffffffffffffffffff160217905550819050919050565b6101e8610261565b6000601080602002604051908101604052809291908260108015610257576020028201915b8160009054906101000a900473ffffffffffffffffffffffffffffffffffffffff1673ffffffffffffffffffffffffffffffffffffffff168152602001906001019080831161020d575b5050505050905090565b60405180610200016040528060109060208202803883398082019150509050509056fea265627a7a72315820a47d060a1e30ff53577ab24f4d3b56daad0d863f0b7f790ef01a38b47fc7a2c464736f6c63430005100032",
  "source": "pragma solidity >=0.4.20;\n\ncontract Permition {\n    \n    address[16] public permitOwners;\n\n    // Permitting a Permit\n    function permit(uint256 permitId) public returns (uint256) {\n        require(permitId >= 0 && permitId <= 15);\n\n        permitOwners[permitId] = msg.sender;\n\n        return permitId;\n    }\n\n    // Retrieving the permitOwners\n    function getPermitOwners() public view returns (address[16] memory) {\n        return permitOwners;\n    }\n}\n",
  "sourcePath": "/Users/msh/development/permits-web3/contracts/Permition.sol",
  "compiler": {
    "name": "solc",
    "version": "0.5.16+commit.9c3226ce.Emscripten.clang"
  },
  "schemaVersion": "3.4.5",
  "updatedAt": "2022-04-29T23:01:14.259Z",
  "networkType": "ethereum",
  "devdoc": {
    "methods": {}
  },
  "userdoc": {
    "methods": {}
  }
}